:1000000000308A003C28000022308400831300085E
:10001000031917280630F800F701F70B0D28F80B25
:100020000C287B30F700F70B1328800B0A280800F8
:1000300083168801831288016430A200042083168D
:100040008801FF30831288006430A20004208A11E6
:100050000A12582883168801831288013230A200C0
:10006000042083168801FF30831288003230A200FA
:1000700004208A110A126B2803081F398300831693
:1000800003170908C039890003131F129F1200309B
:1000900003178800831287018801890183130030C8
:1000A00083160313880083122114211C6828182842
:1000B000831605148312051860286430A2000420FA
:1000C0008316051483120518672821106828211447
:1000D00021187B282A2883160514831205187328F3
:1000E0006430A200042083160514831205187A28B0
:0A00F00021147B282110552863001D
:04400E00E22FFF3F5F
:00000001FF
;PIC16F887
;CRC=5DC6  CREATED="16-Mar-22 15:34"
