:1000000000308A00B02800000A108A100A11820706
:10001000C034F934A434B034993492348234F8348E
:10002000803490342608F801250203181A28250880
:10003000F7002628F7010830A700A50DF70D2608C0
:1000400077020318F700F80DA70B1D2808002530CC
:1000500084008313000803193A280630F800F701DA
:10006000F70B3028F80B2F287B30F700F70B3628DA
:10007000800B2D2808002308A0002008173C031837
:100080004428A308031D73282008A5000A30A600F1
:10009000122077080420F800A1002008A5000A30EB
:1000A000A600122078080420F800A2000030A40066
:1000B0008316870183122208870083168801831222
:1000C000210888006430A500272083168514831238
:1000D00085186D282008A30073282008173C0319F1
:1000E000A001A00A3D288A110A12E3282308A000D3
:1000F000A008031D7E28A308031DAD282008A50025
:100100000A30A600122077080420F800A100200879
:10011000A5000A30A600122078080420F800A200EA
:100120000030A400831687018312220887008316FB
:1001300088018312210888006430A50027208316D7
:10014000051483120518A7282008A300AD28200B4A
:10015000AB281730A000A00378288A110A12E828DB
:1001600003081F398300A101A201A301FF30A400ED
:10017000831603170908C039890003131F129F1241
:1001800000300317880083128701880189018313D7
:1001900000308316031387008312A400831688009F
:1001A000FF30850000308312A40083168701FF30E2
:1001B0008312870083168801831288008316051432
:1001C0008312051C3B28831685148312851C762810
:0401D000DE286300C2
:04400E00E22FFF3F5F
:00000001FF
;PIC16F887
;CRC=11E9  CREATED="30-Mar-22 17:18"
