:1000000000308A00772800000A108A100A1182073F
:10001000C034F934A434B034993492348234F8348E
:100020008034903488348334C634A13486348E349A
:10003000FF30A200A40083120313A301FE30A50029
:100040002308033C031C4F288316860183122508CE
:100050008600831606168312061A3028A4014F283C
:10006000831686168312861A38280130A4004F287A
:10007000831606178312061B40280230A4004F285F
:10008000831686178312861B48280330A4004F2846
:100090002308A30A0310250D013EA5002028240FE4
:1000A00052287228230DF700F70DFC30F70577086A
:1000B0002407A200FF30A4001430A60026308400DC
:1000C00083130008031971280630F800F701F70BB5
:1000D0006728F80B66287B30F700F70B6D28800B3C
:1000E00064281B282208F8008A110A1291280308A4
:1000F0001F398300831603170908C03989000313C9
:100100001F129F1200300317880083128701880195
:1001100089018313FF30831603138600880083123E
:1001200018287808A100210F96289E28210804206D
:10013000A200831688018312220888009028630099
:04400E00E22FFF3F5F
:00000001FF
;PIC16F887
;CRC=AAF0  CREATED="13-Apr-22 13:48"
