:1000000000308A003B2800000A108A100A1182077B
:100010003F3406345B344F3466346D347D340734FA
:100020007F346F342508F801240203181A282408A5
:10003000F7002628F7010830A600A40DF70D2508C3
:1000400077020318F700F80DA60B1D2808002430CE
:1000500084008313000803193A280630F800F701DA
:10006000F70B3028F80B2F287B30F700F70B3628DA
:10007000800B2D28080003081F398300FF30A000E3
:10008000831603170908C039890003131F129F1232
:1000900000300317880083128701880189018313C8
:1000A00000308316031387008312A0008316880094
:1000B0008312A1012108173C031C0D29A301230869
:1000C0003B3C031CD728A20122083B3C031CA1286F
:1000D0002208A4000A30A500122077080420A400FA
:1000E0000030A0008316870183122408870083163E
:1000F0000810831208100130A4002720831608106E
:10010000831208142208A4000A30A50012207808DF
:100110000420A4000030A000831687018312240865
:10012000870083168810831288100130A4002720CE
:1001300083168810831288140130A4002720A20A95
:1001400064282308A4000A30A500122077080420A0
:10015000A4000030A00083168701831224088700C2
:1001600083160811831208110130A400272083167A
:100170000811831208152308A4000A30A5001220D4
:1001800078080420A4000030A000831687018312A1
:100190002408870083168811831288110130A40077
:1001A00027208316881183128815A30A5F28210847
:1001B000A4000A30A500122077080420A400003013
:1001C000A000831687018312240887008316081273
:1001D000831208120130A40027208316081283120C
:1001E00008162108A4000A30A5001220780804206F
:1001F000A4000030A0008316870183122408870022
:1002000083168812831288120130A40027208316D7
:0E021000881283128816A10A5A285928630002
:04400E00E22FFF3F5F
:00000001FF
;PIC16F887
;CRC=69C1  CREATED="06-Apr-22 15:05"
