:1000000000308A003B2800000A108A100A1182077B
:10001000C034FC34A434B034993492348234F8348B
:100020008034903426308400831300080319252877
:100030000630F800F701F70B1B28F80B1A287B3065
:10004000F700F70B2128800B182808002708F80173
:10005000260203182E282608F7003A28F701083050
:10006000A800A60DF70D270877020318F700F80D72
:10007000A80B3128080003081F398300A301A4013D
:10008000FF30A500831603170908C0398900031340
:100090001F129F1200300317880083128701880106
:1000A0008901831300308316031387008312A50090
:1000B00083168800033085000514831205189428E0
:1000C0001430A600122083160514831205189428F4
:1000D000A0012008173C031C94282008A6000A3021
:1000E000A70026207708A1002008A6000A30A70054
:1000F00026207808A20021080420F800A300220886
:100100000420F800A4000030A500831687018312A4
:10011000240887008316880183122308880064302E
:10012000A6001220A00A6928831685148312851858
:10013000CA281430A600122083168514831285184D
:10014000CA281730A0002008A6000A30A7002620E1
:100150007708A1002008A6000A30A700262078080A
:10016000A20021080420F800A30022080420F800BF
:10017000A4000030A500831687018312240887009D
:10018000831688018312230888006430A600122099
:06019000A003A328630098
:04400E00E22FFF3F5F
:00000001FF
;PIC16F887
;CRC=854C  CREATED="23-Mar-22 14:37"
