:1000000000308A0077280000253084008313000820
:10001000031917280630F800F701F70B0D28F80B25
:100020000C287B30F700F70B1328800B0A280800F8
:100030008316891083128910831609108312091000
:1000400083168801831223088800831609118312FE
:10005000091183160911831209150130A500042026
:1000600008000530A50004203830A3001820053012
:10007000A50004200C30A30018200630A30018208F
:100080000130A30018200230A50004208A110A12B2
:100090008D282408F8012302031851282308F700AB
:1000A0005D28F7010830A500A30DF70D240877029D
:1000B0000318F700F80DA50B5428080083168910C3
:1000C000831289108316091083120914831688017C
:1000D00083122408880083160911831209118316DC
:1000E0000911831209150130A50004200800030836
:1000F0001F398300831603170908C03989000313C9
:100100001F129F1200300317880083128701880195
:10011000890183130313A20131280030831688005C
:1001200009108910091189113530831290008E0150
:100130000B308F00DC308E000000A1012108093C4B
:10014000031CAE280C18AB288E010B308F00DB305F
:100150008E000000A2280C10A10A9E28A20A2208E4
:100160003C3C0319A201C730A30018202208A300B9
:100170000A30A400492030307807A300A4005E2094
:100180002208A3000A30A400492030307707A300DA
:08019000A4005E209D2863001D
:04400E00E22FFF3F5F
:00000001FF
;PIC16F887
;CRC=67DB  CREATED="20-Apr-22 17:10"
