:1000000002308A004A2A0000293084008313000845
:10001000031917280630F800F701F70B0D28F80B25
:100020000C287B30F700F70B1328800B0A280800F8
:100030008316891083128910831609108312091000
:1000400083168801831226088800831609118312FB
:10005000091183160911831209150130A900042022
:1000600008000530A90004203830A600182005300B
:10007000A90004200C30A60018200630A600182085
:100080000130A60018200230A90004208A110A12AB
:100090006E2A831689108312891083160910831221
:1000A0000914831688018312280888008316091111
:1000B0008312091183160911831209150130A90051
:1000C000042008000130A60018206430A900042094
:1000D0003830A60018208130A60018205430A8001F
:1000E00049200A30A90004208230A600182072306E
:1000F000A80049200A30A90004208330A600182057
:100100006130A80049200A30A90004208430A600EC
:1001100018206E30A80049200A30A900042086303B
:10012000A60018204D30A80049200A30A90004205C
:100130008730A60018206930A80049200A30A9009D
:1001400004208830A60018206E30A80049200A300C
:10015000A90004208930A60018206830A800492092
:100160000A30A90004208B30A60018205130A800C6
:1001700049200A30A90004208C30A60018207530D0
:10018000A80049200A30A90004208D30A6001820BC
:100190006130A80049200A30A90004208E30A60052
:1001A00018206E30A80049200A30A9000420C4306D
:1001B000A60018203130A80049200A30A9000420E8
:1001C000C530A60018203930A80049200A30A900FF
:1001D0000420C630A60018203130A80049200A307B
:1001E000A9000420C730A60018203530A8004920F7
:1001F0000A30A9000420C830A60018203130A80019
:1002000049200A30A9000420C930A6001820303047
:10021000A80049200A30A9000420CA30A6001820EE
:100220003730A80049200A30A9000420CB30A600AE
:1002300018203830A80049200A30A900042083166D
:1002400003130514831205182929A20A0319A30A06
:100250002A291F298A110A12732AF801F901F701C4
:10026000FA012908031D37292808031951291030DC
:10027000AA000310A60DA70DF70DFA0D29087A02A2
:10028000031D442928087702031C4D292808F7027A
:10029000031CFA032908FA020314F80DF90DAA0B3E
:1002A000392908000130A60018206430A900042074
:1002B0002508A1002408A0002108033C031CCA292A
:1002C000031D66292008E73C031CCA292208023CBA
:1002D000031DCA29A308031DCA298030A6001820BF
:1002E0002108A7002008A600A9016430A8002D213C
:1002F0007908A7007808A6003030A6070318A70AD7
:100300002608A80049208830A60018202108A70048
:100310002008A600A9010A30A8002D217908A7000D
:100320007808A6003030A6070318A70A2608A800F8
:1003300049208F30A60018202108A7002008A60019
:10034000A9010A30A8002D217708A6007A08A70085
:100350003030A6070318A70A2608A800492020085D
:10036000E73C031DBA292108033C031DBA29FF30CD
:10037000A100A0008316051483120518C629A20A3D
:100380000319A30A2108A5002008A400A00A031944
:10039000A10A5C298A110A127A2A0130A6001820C3
:1003A0006430A90004203830A60018202508A100D8
:1003B0002408A000A008031DE029A1080319472A6A
:1003C0002208033C031D472AA308031D472AC03007
:1003D000A60018202108A7002008A600A901643063
:1003E000A8002D217908A7007808A6003030A607BC
:1003F0000318A70A2608A8004920C830A60018201C
:100400002108A7002008A600A9010A30A8002D2174
:100410007908A7007808A6003030A6070318A70AB5
:100420002608A8004920CF30A60018202108A700E0
:100430002008A600A9010A30A8002D217708A600EF
:100440007A08A7003030A6070318A70A2608A800D4
:100450004920A008031D332AA108031D332A0330B5
:10046000A100E830A00083160514831205183F2A66
:10047000A3010130A2002108A5002008A4006430D7
:10048000A900042020080319A103A003DA298A1176
:100490000A12812A03081F398300A3010130A20038
:1004A000A501A401831603170908C03989000313A5
:1004B0001F129F12003003178800831287018801E2
:1004C000890183130030831603138800FF308500F1
:1004D000091489140915891583123128220B732AEE
:1004E000A308031962282208023C031D7A2AA308E4
:1004F000031952292208033C031D812AA30803196A
:06050000CD296E2A630004
:04400E00E22FFF3F5F
:00000001FF
;PIC16F887
;CRC=6F03  CREATED="06-Apr-22 16:52"
