:1000000000308A0018280000223084008313000882
:10001000031917280630F800F701F70B0D28F80B25
:100020000C287B30F700F70B1328800B0A280800F8
:1000300003081F398300FF30A00083160317090847
:10004000C039890003131F129F1200300317880064
:1000500083128701880189018313003083160313FB
:1000600087008312A00083168800FF3085000030CF
:100070008312A0008316870106308312870083163F
:100080008801FE30831288000430A100FA30A200FB
:100090000420A10B462883168801FF3083128800B4
:1000A0000430A100FA30A2000420A10B5228003035
:1000B000A000831687016F308312870083168801A2
:1000C000FD30831288000430A100FA30A200042021
:1000D000A10B652883168801FF3083128800043045
:1000E000A100FA30A2000420A10B71288316372842
:0200F0006300AB
:04400E00E22FFF3F5F
:00000001FF
;PIC16F887
;CRC=9506  CREATED="06-Apr-22 14:00"
