:1000000000308A00AD2800000A108A100A11820709
:10001000C034F934A434B034993492348234F8348E
:10002000803490342708F801260203181A2826087D
:10003000F7002628F7010830A800A60DF70D2708BD
:1000400077020318F700F80DA80B1D2808002430CC
:1000500084008313000803193A280630F800F701DA
:10006000F70B3028F80B2F287B30F700F70B3628DA
:10007000800B2D280800A0012008173C031C6328D2
:100080002008A6000A30A700122077080420F800F4
:10009000A1002008A6000A30A7001220780804203A
:1000A000F800A2000030A300831687018312220803
:1000B0008700831688018312210888006430A40019
:1000C0002720A00A3C2883168801FF30831288006D
:1000D0000030A30083168701FF30831287008A1146
:1000E0000A12DD28A0012008173C031C9E282008C6
:1000F000173CA500A6000A30A700122077080420AC
:10010000F800A1002008173CA500A6000A30A700AF
:10011000122078080420F800A2000030A300831603
:100120008701831222088700831688018312210821
:1001300088006430A4002720A00A73288316880151
:10014000FF30831288000030A30083168701FF3040
:10015000831287008A110A12E22803081F398300DC
:10016000A101A201FF30A300831603170908C039BB
:10017000890003131F129F12003003178800831297
:1001800087018801890183130030831603138700D8
:100190008312A3008316880085008312A3008316B0
:1001A0008701FF308312870083168801831288003D
:1001B000831605148312051C3B28831685148312AD
:0801C000851C7228D828630099
:04400E00E22FFF3F5F
:00000001FF
;PIC16F887
;CRC=859A  CREATED="30-Mar-22 15:58"
