:1000000000308A00B9280000FF00030E8301A10020
:100010000A08A0008A010408A2007708A300780853
:10002000A4007908A5007A08A600831383128C30F7
:100030008400001C1D280C182E2822088400230888
:10004000F7002408F8002508F9002608FA0020081F
:100050008A00210E8300FF0E7F0E09008A110A120A
:1000600031288E010B308F00DC308E000000A70A93
:1000700027080A3C031D4228A80AA70128083C3C7F
:100080000319A8010C108A110A121D282B308400B4
:1000900083130008031959280630F800F701F70BFD
:1000A0004F28F80B4E287B30F700F70B5528800BB4
:1000B0004C280800831689108312891083160910B2
:1000C0008312091083168801831229088800831679
:1000D00009118312091183160911831209150130C0
:1000E000AB00462008000530AB0046203830A900A0
:1000F0005A200530AB0046200C30A9005A200630AB
:10010000A9005A200130A9005A200230AB00462035
:100110008A110A12D0282A08F80129020318932804
:100120002908F7009F28F7010830AB00A90DF70D4B
:100130002A0877020318F700F80DAB0B9628080081
:1001400083168910831289108316091083120914EB
:100150008316880183122A088800831609118312E6
:10016000091183160911831209150130AB004620CD
:10017000080003081F398300A701A801831603178D
:100180000908C039890003131F129F12003003179A
:100190008800831287018801890183130313732860
:1001A0000030831688000910891009118911353033
:1001B000831290008E010B308F00DC308E00000027
:1001C00083160C14C03083128B040B17C730A900A0
:1001D0005A202808A9000A30AA008B20303078075E
:1001E000A900AA00A0202808A9000A30AA008B2094
:0E01F00030307707A900AA00A020E62863009F
:04400E00E22FFF3F5F
:00000001FF
;PIC16F887
;CRC=CCA0  CREATED="20-Apr-22 17:33"
