:100000008831572E000043010C084101600843016C
:100010008C000F0C031C09280C08F7004001080095
:1000200094119A1141014D080F392038CF00E0009A
:100030004001032041014C08CF00E00040010320B3
:1000400041014E08E0004001032094119A1501304F
:10005000F800080094119A11410159080F393038FD
:10006000DE00E0004001032041015808DE00E0000E
:10007000400103204101DD015C085D0203184E28A8
:100080005D085A07840000305B3D8500E0014001B7
:100090000320770880004101DD0A3C2840019411CB
:1000A0009A150130F800080094119A11410159087D
:1000B0000F392038DE00E0004001032041015808DC
:1000C000DE00E000400103204101DD015C085D022B
:1000D000031878285D085A07840000305B3D8500CE
:1000E0000008DE00E000400103204101DD0A66282F
:1000F000400194119A150130F800080020304101A8
:10010000D7008230D600D901D8015708DB00560845
:10011000DA000430DC0040012A20F80803197E28A8
:1001200041015408F700F70E7736073950020319DA
:10013000D02850080739F700F83055057704D50066
:100140002030D7008230D600D901D8015708DB0013
:100150005608DA000430DC0040015420F808031D82
:10016000B3284101A02820304101D7008230D600B9
:10017000D901D8015708DB005608DA000430DC004A
:1001800040012A20F8080319B32841015408F70058
:10019000F70E7736073950020319D0284001B328EB
:1001A000D1080319D72850084001A000410140019F
:1001B00008008318DF28203085008C308400F70188
:1001C000F801F901FA014101DC01DD01DE01DF0185
:1001D0005B085A045904580403191E292030E00012
:1001E0000310D40DD50DD60DD70DDC0DDD0DDE0DB4
:1001F000DF0D5B085F02031D07295A085E02031D1D
:10020000072959085D02031D072958085C02031CD1
:1002100018295808DC025908031C590FDD025A0836
:10022000031C5A0FDE025B08031C5B0FDF02031482
:10023000F70DF80DF90DFA0DE00BF0285C088000C1
:100240005D08813F5E08823F5F08833F40010800F0
:1002500020304101E000DC01DD01DE01DF01570853
:10026000FA005608F9005508F8005408F700031082
:10027000771C48295808DC0759080318590FDD076F
:100280005A0803185A0FDE075B0803185B0FDF07D5
:10029000DF0CDE0CDD0CDC0CFA0CF90CF80CF70CA6
:1002A000E00B37294001080010304101D400F7016C
:1002B000FA01D10CD00C031C63295208F70703186C
:1002C000FA0A5308FA07FA0CF70CF90CF80CD40BDD
:1002D00059294001080094119A1141014F080F3922
:1002E0003038D200E0004001032041014E08D20026
:1002F000E0004001032041015108FA005008840049
:1003000051088500E0014001032077088000941126
:100310009A150130F8000800181614121A169412D3
:100320009A16FF3098002F3092004101B001B601BB
:10033000400194119A1594110E304101CD00CC0169
:100340003608CE0040011020F80803199C2941010D
:10035000B6013614B6140E30CD000430CC00360889
:10036000CE0040011020F808031DB8294101AB2937
:100370004101B6013617B61436140E30CD000730E1
:10038000CC003608CE004001102004304101D000DE
:100390000130D10040017E2001304101B9003130EF
:1003A000B8002D30B700B601BD010330BC00D0301D
:1003B000BB009030BA00C1011E30C0008430BF00C5
:1003C0008030BE00CB01CA0183142030850080300C
:1003D00084003908D7003808D6003708D500360819
:1003E000D4003D08DB003C08DA003B08D9003A089D
:1003F000D8004001D92041015308D7005208D60047
:100400005108D5005008D400D408031D102AD5087F
:10041000031D102AD608031D102AD7080319132A12
:100420000830F8007C2CBE08031D1F2ABF08031DDE
:100430001F2AC008031D1F2AC10803194F2A83144D
:1004400020308500803084003908D7003808D60075
:100450003708D5003608D4004108DB004008DA0030
:100460003F08D9003E08D8004001D9204101530877
:10047000D7005208D6005108D5005008D400D4083F
:10048000031D4B2AD508031D4B2AD608031D4B2AF2
:10049000D70803194F2A0830F8007C2C632ABE08BD
:1004A000031D632ABF08031D632AC008031D632AB6
:1004B000C108031D632A3D08C1003C08C0003B0879
:1004C000BF003A08BE00CA0A0319CB0A83103908D4
:1004D000D7003808D6003708D5003608D400DB012D
:1004E000DA014B08D9004A08D8004001D9207A081F
:1004F0004101D3007908D2007808D1007708D000F4
:1005000083105308D7005208D6005108D500500870
:10051000D4003D08DB003C08DA003B08D9003A086B
:10052000D8004001D92078084101CD007708CC00DF
:100530004D08013C031CED2A031DA22A4C08813CF6
:10054000031CED2AD301D2014D08D1004C08D00084
:100550005308D7005208D6005108D5005008D400DF
:10056000DB01DA014B08D9004A08D80040012821F4
:100570007A084101D3007908D2007808D1007708C1
:10058000D00083103908D7003808D6003708D500C6
:100590003608D4005308DB005208DA005108D900AD
:1005A0005008D8004001D9207A084101D3007908C9
:1005B000D2007808D1007708D0003A085002031D15
:1005C000EC2A3B085102031DEC2A3C085202031D91
:1005D000EC2A3D085302031D2C2BD301D2014D08F8
:1005E000D1004C08D0005308D7005208D6004D085F
:1005F000D5004C08D400DB01DA010330D9006B30A0
:10060000D800400128217A084101D3007908D2009E
:100610007808D1007708D00083105308D70052081B
:10062000D6005108D5005008D400DB01DA010330B0
:10063000D900E830D8004001D9207A084101D30020
:100640007908D2007808D1007708D0000130500234
:10065000CE000030513BCF004D08003C03183B2B2F
:10066000FF3A031D372B4C08813C03183B2B4B08EA
:10067000003C0318632A4B08003C031C4A2B4F081C
:10068000003C03184A2BFF3A031D632A4E08003C26
:10069000031C632A4D08003C0318582BFF3A031D26
:1006A000552B4C08813C0318582B0930F8007C2C42
:1006B00001304A02C5004F08003C0318692BFF3A7D
:1006C000031D662B4E08003C0318692BFF30C40045
:1006D0006C2B01304E02C400D10103304407F800F6
:1006E0000030513DFA0078084C027F39F700803025
:1006F00043057704C30043087F397F39F700803012
:1007000042057704C200CB01CA01CA0A0319CB0A09
:1007100083103908D7003808D6003708D5003608C6
:10072000D400DB01DA014B08D9004A08D8004001A7
:10073000D9207A084101D3007908D2007808D10085
:100740007708D00083105308D7005208D60051080C
:10075000D5005008D4004108DB004008DA003F080B
:10076000D9003E08D8004001D92078084101CD00C9
:100770007708CC004D08D1004C08D0000330D300DE
:100780006B30D2004001542179084101D100780832
:10079000D0005108D3005008D2000330D500E83013
:1007A000D400F801F901F701FA015508031DDB2B0C
:1007B00054080319F52B1030D6000310D20DD30DB9
:1007C000F70DFA0D55087A02031DE82B540877023D
:1007D000031CF12B5408F702031CFA035508FA0214
:1007E0000314F80DF90DD60BDD2B7908D10078082C
:1007F000D00001305002CE000030513BCF00CD0878
:10080000031D062C4C08313C03180A2C4B08003CF5
:100810000318852B4B08003C031C152CCF08031D27
:10082000852B4E08203C031C852BCD08031D1C2C5A
:100830004C08313C03181F2C0A30F8007C2C013086
:100840004A02C900CF08031D292C4E08203C03187A
:100850002E2CE03048051F38C800362C01304E02DF
:100860001F39F700E03048057704C80048081F39F1
:10087000033E4C020F39F700F03047057704C700FC
:1008800047080F390F39F700F03046057704C600E6
:100890000430D000D10140017E2020304101D10040
:1008A0007230D000D9010430D8005108DB00500864
:1008B000DA000430DC0040015420F80803194D2C04
:1008C00020304101D1007630D000D9010830D80065
:1008D0005108DB005008DA000430DC0040015420ED
:1008E000F8080319602C20084101D000D101400113
:1008F0007E200030F8004101B101B201B301341093
:10090000B4102030B7006130B600D9010C30D800E7
:100910003708DB003608DA000430DC0040015420E0
:10092000F808031D952C4101812C4101B201B10150
:100930003310B31033112030B7006130B600D90145
:100940001430D8003708DB003608DA000330DC004A
:1009500040015420F808031DAF2C41019B2C20308E
:100960004101B7006130B600D901D8013708DB007A
:100970003608DA000430DC0040012A20F8080319A8
:10098000AF2CE03041013105B100B112311332100A
:10099000F9303205B20032123310B3103311B311F3
:1009A00033160F303405B4002030B7006130B60084
:1009B000D901D8013708DB003608DA000430DC0042
:1009C00040015420F808031DE72C4101D42C4101BB
:1009D000B401B301B201B1012030B7006130B600FB
:1009E000D9014030D8003708DB003608DA0004307F
:1009F000DC0040015420F808031D002D4101EC2CBF
:100A00004101B401B301B201B101B117E0303305C6
:100A10001F38B3009F3033054038B300E030340551
:100A20000F38B4001F303405B4002030B7006130F7
:100A3000B600D9015030D8003708DB003608DA009C
:100A40000430DC0040015420F808031D292D410129
:100A5000152D4101B401B301B201B101B113E03070
:100A600034050F38B4001F303405E038B400B1123B
:100A70002030B7006130B600D9015C30D8003708AB
:100A8000DB003608DA000430DC0040015420F808AE
:100A9000031D4C2D4101382D4101B601BA01B901A8
:100AA0000330B800B7011F30BE00FF30BD00BC00EE
:100AB000FE30BB000130BF00D0303607C00001302F
:100AC000C1000318C10A2030CD007230CC004108AB
:100AD000CF004008CE004D08D1004C08D0004001A6
:100AE0006B21F808031D762D4101632D4101C21FC2
:100AF0008A2D4208C300C3134108CD004008CC0032
:100B00004308CE0040011020F808031D892D410143
:100B10007C2D4101C701C601C501C401CB01CA0139
:100B2000C901C8013F08003A400103199E2D013A4E
:100B30000319B52D033A0319B52D552E4101370878
:100B4000C40038080739F700F83045057704C500B8
:100B50003B08C8003C080739F700F830490577041E
:100B6000C90047134B174001552E410137081F3963
:100B7000F700F735F70DF70D073045057704C50089
:100B80003B081F39F700F735F70DF70D073049051A
:100B90007704C9003708370ECC00CC0C0730CC05E1
:100BA0003808F700F70DF70DF70DF830F70577085F
:100BB0004C04C6003B083B0ECC00CC0C0730CC05E7
:100BC0003C08F700F70DF70DF70DF830F70577083B
:100BD0004C04CA003808380ECC00CC0C0730CC05C9
:100BE00039080339F700F70DF70DF70DF830F70561
:100BF00077084C041F39F700E03047057704C70039
:100C00003C083C0ECC00CC0C0730CC053D08033929
:100C1000F700F70DF70DF70DF830F70577084C04DE
:100C20001F39F700E0304B057704CB00390CCC00BE
:100C3000CC0C3F30CC053A08F700F70EF70DF70D56
:100C4000C030F70577084C04C4003D0CCC00CC0C38
:100C50003F30CC053E08F700F70EF70DF70DC0301A
:100C6000F70577084C04C8003A08F700F70CF70CB2
:100C70003F30F70577080739F700F8304505770466
:100C8000C5003E08F700F70CF70C3F30F705770872
:100C90000739F700F83049057704C9003F0B532E98
:100CA00047174B17542E4B1340014101CD01360815
:100CB000CC004C0DF9004D0DFA00F90DFA0DF90DAF
:100CC000FA0DF830F9057908F03ECC0001307A3D94
:100CD000CD002030CF007430CE004D08D9004C0834
:100CE000D8004F08DB004E08DA000430DC00400179
:100CF0005420F8080319552E4101CD013608CC00C7
:100D00004C0DF9004D0DFA00F90DFA0DF90DFA0D23
:100D1000F830F9057908F43ECC0001307A3DCD0079
:100D20002030CF007830CE004D08D9004C08D800D4
:100D30004F08DB004E08DA000430DC00400154208C
:100D4000F80803197C2E4101C21FB42E4108CD00C2
:100D50004008CC004208CE0040011020F808031DD6
:100D6000B32E4101A62E4101B6010130B700D030AB
:100D70003607B8000130B9000318B90A2030BD00A9
:100D80006A30BC003908CF003808CE003D08D100D9
:100D90003C08D00040016B21F808031DD12E410111
:100DA000BE2E4101BA1FE32EBA133908CD00380810
:100DB000CC003A08CE0040011020F808031DE22EB6
:100DC0004101D52E4101BA1737081F39F700E0302D
:100DD0003A057704BA003908CD003808CC003A0843
:100DE000CE0040011020F808031DF82E4101EB2E23
:100DF00041013008D0000130D10040017E2088310F
:100E0000902E410131103008003C03184D2FB003E3
:100E1000B7013008B6003708D1003008D000D30140
:100E20000C30D2004001542178085C3E4101B200F0
:100E30000030793DB3003308CF003208CE002030B7
:100E4000D1006430D00040016B21780B4E2F41015E
:100E5000B41B4D2FB7013008B6003708D100300859
:100E6000D000D3010C30D200400154217808603EFC
:100E70004101B2000030793DB3003308CF003208A1
:100E8000CE002030D1006430D00040016B21780BBF
:100E90004E2F41013110341831144001003041010E
:100EA00031180130F800883140019A2E94119A11BE
:100EB000410146080F393038CE00E00040010320E0
:100EC00041014508CE00E0004001032041014808EF
:100ED000CB004708CA00CC0149084C020318A22FD6
:100EE0004A0884004B0885000031E00140010320DE
:100EF0007708800041014A0884004B0885000131D1
:100F0000E001400103207708800041014A08840085
:100F10004B0885000231E001400103207708800082
:100F200041014A0884004B0885000331E00140017B
:100F300003207708800004304101CA070318CB0A58
:100F4000CC0A6C2F400194119A150130F80008006A
:100F500041014F08083C031CB02F4F08D000D52F8B
:100F600009304F02F93E0318D52F073E4001DA2F12
:100F70000C304101D000D52F10304101D000D52FC9
:100F800014304101D000D52F18304101D000D52FA9
:100F900020304101D000D52F30304101D000D52F75
:100FA00040304101D000D52F41015008F800883170
:100FB000400190290A148A140A158207B82FBC2F01
:0A0FC000C02FC42FC82FCC2FD02F54
:1010000041013408003C03180A2B0130B402C4012A
:101010003408C3004408D1004308D000D3010C3089
:10102000D200803140015421883178085C3E410172
:10103000B5000030793DB6003608CF003508CE0047
:101040002030D1006730D000803140016B218831E1
:10105000F808031D2E280B30F8000E2B4101B71F96
:1010600036280230F80040010E2B4101C40134083B
:10107000C3004408D1004308D000D3010C30D20093
:1010800080314001542188317808603E4101B5002B
:101090000030793DB6003608CF003508CE0020304C
:1010A000D1006830D000803140016B218831F808D0
:1010B000031D5D280B30F8000E2B41013818652800
:1010C0000130F80040010E2B4101C4013408C30077
:1010D0004408D1004308D000D3010C30D200803145
:1010E0004001542188317808643E4101B500003048
:1010F000793DB6002030C4006530C3003608D90001
:101100003508D8004408DB004308DA000230DC0070
:10111000803140012A208831F808031D92280B30C5
:10112000F8000E2B04304101B6072030C4006930AE
:10113000C3003608C6003508C5004408C800430887
:10114000C7000230C9008031400156278831F808B5
:10115000031DAD280B30F8000E2B41013108C400EF
:101160003008C3002030C6006930C5004308840041
:101170004408850000318001013180010131800186
:101180000131800104304507F8000030463DFA0087
:10119000780884007A0885000030001A0130013C8C
:1011A000031D41294308F8004508840046088500CE
:1011B00000310008CE0001310008CF0001310008E5
:1011C000D00001310008D1003D314F08CE00500859
:1011D000CF005108D000D101D10CD00CCF0CCE0CD7
:1011E000D10CD00CCF0CCE0CD10CD00CCF0CCE0C23
:1011F0001F30D1050330D005D101450884004608D1
:10120000850000310008D30001310008D4003F31CF
:101210005308F70054080739FA007A08D400D501BA
:10122000D601F701F801530DF900540DFA00F90D3C
:10123000FA0DFC30F90577084E04F70078084F04E2
:10124000F80079085004F9007A085104FA00D10036
:101250007908D0007808CF007708CE0044088500D0
:10126000430884004E0880004F08813F5008823FA9
:101270005108833F43088400440885000A318014E4
:101280007A29450884004608850000310008CE0010
:1012900001310008CF003F314E08F7004F080739F1
:1012A000FA007A08CF0044088500430884004E08FD
:1012B000800001314F08800001318001013180013F
:1012C000450884004608850000310008CC00013143
:1012D0000008CD003F31CF1E742943088400440824
:1012E00085000131801501314308840044088500E0
:1012F0000A31801004304307F8000030443DFA0002
:101300007808CC007A08CD0045088400460885009E
:10131000043100080F39CE00CF0080314001A82FE2
:10132000883141014D0885004C0884007808800010
:1013300005304307F8000030443DFA007808CC003F
:101340007A08CD004508840046088500053100086C
:10135000F700F736F7367736CE004D0885004C0893
:1013600084004E0880000A304307F8000030443DF6
:10137000FA007808CC007A08CD0004304507F80060
:101380000030463DFA00780884007A088500003075
:10139000801A0130F8007818D3294D0885004C08D0
:1013A00084000011D8294D0885004C0884000015E0
:1013B0000A304307F8000030443DFA007808CC00BA
:1013C0007A08CD0004304507F8000030463DFA00A9
:1013D000780884007A0885000030801B0130F8000E
:1013E0007818F8294D0885004C0884008011FD29E3
:1013F0004D0885004C08840080150830B507003082
:10140000B63DB71E702A30088400310885000A31C5
:10141000001606303007C3000030313DC4003608E6
:10142000C6003508C5004408C8004308C70040018D
:1014300094119A11410146080F393038CA00E00072
:10144000803140010320883141014508CA00E00095
:101450008031400103208831410147088400480859
:1014600085000031E0018031400103208831770898
:101470008000410147088400480885000131E001EF
:1014800080314001032088317708800041014708FE
:101490008400480885000231E001803140010320CA
:1014A000883177088000410147088400480885009A
:1014B0000331E0018031400103208831770880004A
:1014C00094119A150130F800F808031D6A2A0B30B0
:1014D000F8000E2B04304101B5070030B63D762AE6
:1014E00030088400310885000A3100123008840079
:1014F00031088500043FC100C10803199E2A410834
:1015000003390319852AC10A7F2AC10CC10C3F3057
:10151000C1053608C6003508C5003308C8003208C2
:10152000C7004108C9008031400156278831F808BA
:10153000031D9D2A0B30F8000E2B41010A303007A5
:10154000C3000030313DC400381AAC2A440885007D
:10155000430884000010B12A440885004308840031
:101560000014381EDA2A3812C4013408C3004408B3
:10157000D1004308D000D3010C30D20080314001AB
:10158000542188317808603E4101B5000030793D32
:10159000B6003608CD003508CC003808CE008031C2
:1015A000400110208831F808031DD92A0B30F800BB
:1015B0000E2B4101C4013408C3004408D100430884
:1015C000D000D3010C30D200803140015421883149
:1015D00078085C3E4101C3000030793DC400013011
:1015E0004307B5000030443DB6003608CD0035084D
:1015F000CC000130CE008031400110208831F80845
:10160000031D052B0B30F8000E2B0030F8000E2BBD
:101610000E2B41010230F80040010E2B8831AB2E19
:101620004101B2013208023C031C522B3208003A3D
:1016300040010319222B013A0319322B033A0319F3
:10164000422B4F2B4101301C302B311C2C2B4001E5
:1016500094129A162F2B4101400194129A124101C3
:1016600040014F2B4101B01C402BB11C3C2B4001D1
:1016700014121A163F2B4101400114121A12410193
:1016800040014F2B4101301D4E2B311D4B2B400192
:1016900018164D2B41014001181241014001410132
:1016A000B20A122B88314001C82E41013408003C97
:1016B00003188A2B01303402CA01C9004A08D1003C
:1016C0004908D000D3010C30D200803140015421B0
:1016D000883178085C3E4101B6000030793DB700A2
:1016E0003708CF003608CE002030D1006530D0005A
:1016F000803140016B218831F808031D822B0B30AB
:10170000F800552E4101B51B8A2B0530F800400129
:10171000552E4101B408031D912BB7015430B6007A
:10172000A72B01303402CA01C9004A08D100490878
:10173000D000D3010C30D2008031400154218831D7
:101740007808603E4101B6000030793DB7003708A7
:10175000CF003608CE002030D1006530D000803177
:1017600040016B218831F808031DB92B0B30F800BC
:10177000552E41013518C12B0430F8004001552E7B
:101780004101B408031DC82BB7015830B600DE2B49
:1017900001303402CA01C9004A08D1004908D0000A
:1017A000D3010C30D20080314001542188317808B7
:1017B000643E4101B6000030793DB7002030CA00D8
:1017C0006630C9003708D9003608D8004A08DB005F
:1017D0004908DA000230DC00803140012A208831DB
:1017E000F808031DF62B0B30F800552E043041018C
:1017F000B7072030CA006830C9003108CC00300873
:10180000CB00490884004A0885000031800101317D
:10181000800101318001013180014B0884004C08B6
:101820008500003FCD00013FCE00023FCF00033FC7
:10183000D00005304B07F80000304C3DFA00780826
:1018400084007A088500003000180130013C031D37
:10185000942C490884004A08850001314D081F393D
:10186000F700F735F70DF70D073000057704800016
:10187000490884004A0885004D084D0ED600D60C54
:101880000730D6054E081F39F700F70DF70DF70D95
:10189000F830F70577085604823F490884004A0863
:1018A000850003314E084E0ED600D60C0730D60503
:1018B0004F080339F700F70DF70DF70DF830F7056E
:1018C000770856041F39F700E030000577048000E0
:1018D000490884004A0885004F0CD600D60C3F30DA
:1018E000D6055008F700F70EF70DF70DC030F705D5
:1018F00077085604803F490884004A088500013172
:101900005008F700F70CF70C3F30F7057708073958
:10191000F700F830000577048000490884004A0881
:10192000850004310016BE2C490884004A08850051
:101930004E080739F800F901FA014D08803F780890
:10194000813F03304907F80000304A3DFA0078082B
:10195000D4007A08D500CE19B32C55088500540858
:1019600084008012B82C5508850054088400801625
:10197000490884004A0885000431001204304907F0
:10198000F80000304A3DFA007808D4007A08D50003
:101990004B0884004C08850004310008D600560826
:1019A000D7005708083C031CD82C5708D800042D32
:1019B00057080C3C031CDF2C0930D800042D5708B5
:1019C000103C031CE62C0A30D800042D5708143CA8
:1019D000031CED2C0B30D800042D5708183C031CB9
:1019E000F42C0C30D800042D5708203C031CFB2C91
:1019F0000D30D800042D5708303C031C022D0E304A
:101A0000D800042D0F30D8005808F800550885007C
:101A10005408840078080F39F700F0300005770487
:101A2000800004304907F80000304A3DFA00780889
:101A3000D4007A08D50005304B07F80000304C3D43
:101A4000FA00780884007A08850000308018013098
:101A5000F8007818312D550885005408840080124C
:101A6000362D5508850054088400801649088400E6
:101A70004A0885000431001704304907F800003097
:101A80004A3DFA007808D4007A08D50005304B07A3
:101A9000F80000304C3DFA00780884007A08850090
:101AA000003000190130F80078185C2D55088500C9
:101AB000540884008013612D550885005408840063
:101AC0008017490884004A08850005314001210833
:101AD000A10A7F39F700F73501300005770480004F
:101AE000A113410130088400310885000431000849
:101AF000C9002030CB007030CA003308CD00320856
:101B0000CC004908CE000230CF004D0885004C08BB
:101B100084004E08F8000319952D4B0887004A08E9
:101B2000860012001E00F80B912D4E080339031990
:101B3000A22D4E08CE0A4A07840000304B3D850096
:101B40008001952D4E0CF700F70C3F30F705770814
:101B5000CF074F08F8007808C8002030CA00683066
:101B6000C9003708CC003608CB004A08CE00490827
:101B7000CD004808CF00400194119A1141014C0852
:101B80000F392038D300E000803140010320883134
:101B900041014B08D300E00080314001032088312F
:101BA00041014E08D2004D08D100D0014F0850022B
:101BB0000318142E510884005208850000310008D3
:101BC000D300E000803140010320883141015108F9
:101BD00084005208850001310008D300E000803104
:101BE00040010320883141015108840052088500DA
:101BF00002310008D300E000803140010320883129
:101C00004101510884005208850003310008D300C7
:101C1000E000803140010320883104304101D107C8
:101C20000318D20AD00AD62D400194119A1501301A
:101C3000F800F808031D1F2E0B30F800552E410147
:101C4000B408031D272EB7015130B600432E0130D2
:101C50003402CA01C9004A08D1004908D000D301A2
:101C60000C30D200803140015421883178085C3E2C
:101C70004101C9000030793DCA0001304907B60072
:101C800000304A3DB7003708CD003608CC0003309D
:101C9000CE008031400110208831F808031D532EFA
:101CA0000B30F800552E0030F80088310C2F5530DD
:101CB0007D018F00AA308F000F101030C500123048
:101CC000C60015307E01A0001630A10055307D0100
:101CD0008F00AA308F000F14510192018F019101E2
:101CE0000630930060308D004301901240308F0029
:101CF0002030900040019410141514100430A000FE
:101D0000A1017E01B801CE0153019101920193011D
:101D100090019501960197019401803140018C2931
:101D200088310C080739EE0001304101B0008031E4
:101D30004001012F8831F8080319C82E20304101D5
:101D4000B1000230B0002030B3000D30B2000130DD
:101D5000B40040010028F808031DC82EA208031D86
:101D6000C82E2308033C031DC82EA408031DC82E3B
:101D7000A508031DC82E2608023C031DC82E2D08E9
:101D80004101B00040012E084101B1004001102B7B
:101D90000C080739ED006E086D0203190E2F85300F
:101DA000F700F70BD12E0C0807396E0203190E2F1E
:101DB0004101A301A2010330A100A0000130A40051
:101DC0002514A5102515003040016D190130410181
:101DD000AE0000304001ED180130F7000310F70DA0
:101DE00077084101AE04003040016D180130F70062
:101DF000F70DF70DFC30F705770841012E04073980
:101E0000A6002030B1005030B0002030B300563072
:101E1000B200B4014001552B6D08EE00942E630012
:020000040001F9
:0A000E00EC3FFD3F9F3FFF1FFF3F47
:00000001FF
;PIC16F15324
;CRC=495E  CREATED="31-Mar-20 12:38"
