:0600000088315F2C0000B6
:0800080083018031200077081C
:10001000A0007808A1007908A2007A08A300850151
:1000200091308400801C162891181F282008F700A2
:100030002108F8002208F9002308FA00090080319D
:10004000582821006208003A200003192E28013A9E
:1000500003193C28033A03194A2857282100E308CA
:10006000031937288D1322008D173A2821008D138C
:1000700022008D13200057282100E308031945288A
:100080000D1322000D17482821000D1322000D1317
:10009000200057282100E308031953288D1222005D
:1000A0008D16562821008D1222008D122000080086
:1000B00029082100E200E30120002120A90A2908E3
:1000C000023C031CA901063029078400203085006A
:1000D0000318850A00082100E100611C74280E1332
:1000E00022000E13772821000E1322000E17210084
:1000F000E11C7F288C1022008C10822821008C109B
:1001000022008C142100611D8A280C1122000C1180
:100110008D2821000C1122000C152100E11D9528CD
:100120008E1122008E11982821008E1122008E152A
:100130002100611EA0280E1222000E12A328210009
:100140000E1222000E162100E11EAB288E12220094
:100150008E12AE2821008E1222008E162100611F01
:10016000B6280C1022000C10B92821000C10220017
:100170000C142100E11FC1288E1322008E13C42805
:1001800021008E1322008E17200029082100E20092
:100190000130E30020002120911080311628210039
:1001A0008D1222008D1221000D1322000D1321004B
:1001B0008D1322008D130030F800073820009F00B7
:1001C000D0309E0021009114C0308B048831200073
:1001D0009A2C240011082100580824009100140CC6
:1001E000031CEF281108F7002000080021000D1261
:1001F00022000D12210041080F392038C300D80019
:100200002000E92021004008C300D8002000E92098
:1002100021004208D8002000E92021000D12220010
:100220000D160130F8002000080021000D122200F8
:100230000D12210051080F393038D600D8002000A7
:10024000E92021005008D600D8002000E920210034
:10025000D5015408550203183B295508520784005C
:100260000030533D8500D8012000E9207708800048
:100270002100D50A29290D1222000D160130F8009F
:100280002000080021000D1222000D12210051084B
:100290000F392038D600D8002000E920210050086E
:1002A000D600D8002000E9202100D50154085502CD
:1002B000031868295508520784000030533D850013
:1002C0000008D600D8002000E9202100D50A5629D0
:1002D0000D1222000D160130F80020000800203019
:1002E0002100CF007A30CE00D101D0014F08D300D9
:1002F0004E08D2000430D40020001521F80803195C
:100300006F2921004C08F700F70E773607394802AD
:100310000319C12948080739F700F8304D0577045B
:10032000CD002030CF007A30CE00D101D0014F086F
:10033000D3004E08D2000430D40020004221F80837
:10034000031DA4292100912920302100CF007A30FB
:10035000CE00D101D0014F08D3004E08D2000430A6
:10036000D40020001521F8080319A42921004C0805
:10037000F700F70E7736073948020319C129200024
:10038000A429C9080319C82948082000A40021008D
:10039000200008008318D029203085008730840091
:1003A000F701F801F901FA012100D701D801D901BB
:1003B000DA01530852045104500403190F2A203063
:1003C000DB000310CC0DCD0DCE0DCF0DD70DD80D0C
:1003D000D90DDA0D53085A02031DF82952085902A3
:1003E000031DF82951085802031DF8295008570227
:1003F000031C092A5008D7025108031C510FD802C8
:100400005208031C520FD9025308031C530FDA027F
:100410000314F70DF80DF90DFA0DDB0BE129570860
:1004200080005808813F5908823F5A08833F2000C6
:10043000080020302100DB00D701D801D901DA0102
:100440004F08FA004E08F9004D08F8004C08F70074
:100450000310771C392A5008D70751080318510F89
:10046000D80752080318520FD90753080318530F1F
:10047000DA07DA0CD90CD80CD70CFA0CF90CF80CFA
:10048000F70CDB0B282A2000080010302100CC00DC
:10049000F701FA01C90CC80C031C542A4A08F707D3
:1004A0000318FA0A4B08FA07FA0CF70CF90CF80CC7
:1004B000CC0B4A2A2000080021000D1222000D1248
:1004C000210043080F393038C600D8002000E92049
:1004D00021004208C600D8002000E920210045087C
:1004E000FA004408840045088500D8012000E9206E
:1004F0007708800021000D1222000D160130F8004F
:10050000200008002100AA010D1222000D16210072
:100510000D120E30C100C0012A08C2002000F620D2
:10052000F808031D952A2100892A2100AA012A140E
:10053000AA140E30C1000430C0002A08C2002000F6
:10054000F620F808031DA62A2100992A2100AA01F5
:100550002A17AA142A140E30C1000730C0002A0836
:10056000C2002000F62004302100C8000130C9007C
:1005700020006F2101302100AD003130AC002D3062
:10058000AB00AA01B1010330B000D030AF00903011
:10059000AE00B5011E30B4008430B3008030B2002C
:1005A000BF01BE01831420308500783084002D08FF
:1005B000CF002C08CE002B08CD002A08CC00310833
:1005C000D3003008D2002F08D1002E08D000200020
:1005D000CA2121004B08CF004A08CE004908CD00AF
:1005E0004808CC00CC08031DFE2ACD08031DFE2AB6
:1005F000CE08031DFE2ACF080319012B0830F8008E
:100600006A2DB208031D0D2BB308031D0D2BB40872
:10061000031D0D2BB50803193D2B831420308500D5
:10062000783084002D08CF002C08CE002B08CD0098
:100630002A08CC003508D3003408D2003308D10092
:100640003208D0002000CA2121004B08CF004A0800
:10065000CE004908CD004808CC00CC08031D392B3A
:10066000CD08031D392BCE08031D392BCF080319E4
:100670003D2B0830F8006A2D512BB208031D512B79
:10068000B308031D512BB408031D512BB508031DDE
:10069000512B3108B5003008B4002F08B3002E08E4
:1006A000B200BE0A0319BF0A83102D08CF002C0820
:1006B000CE002B08CD002A08CC00D301D2013F0880
:1006C000D1003E08D0002000CA217A082100CB00CA
:1006D0007908CA007808C9007708C80083104B0859
:1006E000CF004A08CE004908CD004808CC003108A8
:1006F000D3003008D2002F08D1002E08D0002000EF
:10070000CA2178082100C1007708C0004108013CD7
:10071000031CDB2B031D902B4008813C031CDB2BAF
:10072000CB01CA014108C9004008C8004B08CF00EE
:100730004A08CE004908CD004808CC00D301D201B8
:100740003F08D1003E08D000200019227A0821007D
:10075000CB007908CA007808C9007708C800831060
:100760002D08CF002C08CE002B08CD002A08CC0085
:100770004B08D3004A08D2004908D1004808D000ED
:100780002000CA217A082100CB007908CA00780825
:10079000C9007708C8002E084802031DDA2B2F086D
:1007A0004902031DDA2B30084A02031DDA2B3108F7
:1007B0004B02031D1A2CCB01CA014108C900400895
:1007C000C8004B08CF004A08CE004108CD004008C1
:1007D000CC00D301D2010330D1006B30D000200017
:1007E00019227A082100CB007908CA007808C900CC
:1007F0007708C80083104B08CF004A08CE0049088C
:10080000CD004808CC00D301D2010330D100E8303C
:10081000D0002000CA217A082100CB007908CA0044
:100820007808C9007708C80001304802C2000030CB
:10083000493BC3004108003C0318292CFF3A031D23
:10084000252C4008813C0318292C3F08003C031844
:10085000512B3F08003C031C382C4308003C031874
:10086000382CFF3A031D512B4208003C031C512B2E
:100870004108003C0318462CFF3A031D432C400856
:10088000813C0318462C0930F8006A2D01303E02E5
:10089000B9004308003C0318572CFF3A031D542CA1
:1008A0004208003C0318572CFF30B8005A2C013086
:1008B0004202B800C90103303807F8000030493D52
:1008C000FA00780840027F39F70080303705770456
:1008D000B70037087F397F39F70080303605770455
:1008E000B600BF01BE01BE0A0319BF0A83102D085E
:1008F000CF002C08CE002B08CD002A08CC00D30155
:10090000D2013F08D1003E08D0002000CA217A0859
:100910002100CB007908CA007808C9007708C80010
:1009200083104B08CF004A08CE004908CD00480884
:10093000CC003508D3003408D2003308D100320887
:10094000D0002000CA2178082100C1007708C0002B
:100950004108C9004008C8000330CB006B30CA0012
:100960002000452279082100C9007808C8004908FC
:10097000CB004808CA000330CD00E830CC00F801B5
:10098000F901F701FA014D08031DC92C4C080319A0
:10099000E32C1030CE000310CA0DCB0DF70DFA0D6D
:1009A0004D087A02031DD62C4C087702031CDF2C5D
:1009B0004C08F702031CFA034D08FA020314F80D61
:1009C000F90DCE0BCB2C7908C9007808C80001308E
:1009D0004802C2000030493BC300C108031DF42C8B
:1009E0004008313C0318F82C3F08003C0318732CD6
:1009F0003F08003C031C032DC308031D732C420851
:100A0000203C031C732CC108031D0A2D4008313CF7
:100A100003180D2D0A30F8006A2D01303E02BD008A
:100A2000C308031D172D4208203C03181C2DE0307D
:100A30003C051F38BC00242D013042021F39F7004D
:100A4000E0303C057704BC003C081F39033E4002FF
:100A50000F39F700F0303B057704BB003B080F3936
:100A60000F39F700F0303A057704BA000430C800B7
:100A7000C90120006F2120302100C9006630C80064
:100A8000D1010430D0004908D3004808D200043016
:100A9000D40020004221F80803193B2D203021000A
:100AA000C9006A30C800D1010830D0004908D3001D
:100AB0004808D2000430D40020004221F80803196D
:100AC0004E2D24082100C800C90120006F210030EC
:100AD000F8002100A601A701A8012910A9102030C3
:100AE000AB005630AA00D1010C30D0002B08D30047
:100AF0002A08D2000430D40020004221F808031D47
:100B0000832D21006F2D2100A701A6012810A81018
:100B100028112030AB005630AA00D1011430D0008B
:100B20002B08D3002A08D2000330D4002000422131
:100B3000F808031D9D2D2100892D20302100AB00D8
:100B40005630AA00D101D0012B08D3002A08D200C8
:100B50000430D40020001521F80803199D2DE03041
:100B600021002605A600A61226132710F930270516
:100B7000A70027122810A8102811A81128160F3036
:100B80002905A9002030AB005630AA00D101D001C0
:100B90002B08D3002A08D2000430D40020004221C0
:100BA000F808031DD52D2100C22D2100A901A8019F
:100BB000A701A6012030AB005630AA00D101403079
:100BC000D0002B08D3002A08D2000430D400200023
:100BD0004221F808031DEE2D2100DA2D2100A90184
:100BE000A801A701A601A617E03028051F38A80014
:100BF0009F3028054038A800E0302905A9001F30A3
:100C00002905E038A9002030AB005630AA00D101F8
:100C10005030D0002B08D3002A08D2000430D40072
:100C200020004221F808031D172E2100032E210069
:100C3000A901A801A701A601A613E03029050F38D4
:100C4000A9001F302905E038A900A6122030AB000A
:100C50005630AA00D1015C30D0002B08D3002A08FE
:100C6000D2000430D40020004221F808031D3A2E9F
:100C70002100262E2100AA01AE01AD010430AC00F6
:100C8000AB011F30B200FF30B100B000AF00013047
:100C9000B300D0302A07B4000130B5000318B50AFC
:100CA0002030C1006630C0003508C3003408C200DF
:100CB0004108C5004008C40020005C22F808031D5C
:100CC000632E2100502E2100B61F772E3608B70064
:100CD000B7133508C1003408C0003708C20020002F
:100CE000F620F808031D762E2100692E2100BB0195
:100CF000BA01B901B801BF01BE01BD01BC01330891
:100D0000003A200003198B2E013A0319A22E033A50
:100D10000319A22E422F21002B08B8002C080739F6
:100D2000F700F83039057704B9002F08BC00300807
:100D30000739F700F8303D057704BD003B133F1736
:100D40002000422F21002B081F39F700F735F70D3F
:100D5000F70D073039057704B9002F081F39F70060
:100D6000F735F70DF70D07303D057704BD002B086B
:100D70002B0EC000C00C0730C0052C08F700F70D83
:100D8000F70DF70DF830F70577084004BA002F0883
:100D90002F0EC000C00C0730C0053008F700F70D5B
:100DA000F70DF70DF830F70577084004BE002C0862
:100DB0002C0EC000C00C0730C0052D080339F70009
:100DC000F70DF70DF70DF830F705770840041F39D8
:100DD000F700E0303B057704BB003008300EC00060
:100DE000C00C0730C00531080339F700F70DF70DC7
:100DF000F70DF830F705770840041F39F700E030A9
:100E00003F057704BF002D0CC000C00C3F30C0056B
:100E10002E08F700F70EF70DF70DC030F70577082D
:100E20004004B800310CC000C00C3F30C00532088F
:100E3000F700F70EF70DF70DC030F70577084004FF
:100E4000BC002E08F700F70CF70C3F30F7057708C9
:100E50000739F700F83039057704B9003208F70090
:100E6000F70CF70C3F30F70577080739F700F83033
:100E70003D057704BD00330B402F3B173F17412F33
:100E80003F1320002100C1012A08C000400DF900D5
:100E9000410DFA00F90DFA0DF90DFA0DF830F905CA
:100EA0007908F03EC00001307A3DC1002030C30017
:100EB0006830C2004108D1004008D0004308D30088
:100EC0004208D2000430D40020004221F80803195F
:100ED000422F2100C1012A08C000400DF900410D38
:100EE000FA00F90DFA0DF90DFA0DF830F905790847
:100EF000F43EC00001307A3DC1002030C3006C30A8
:100F0000C2004108D1004008D0004308D300420885
:100F1000D2000430D40020004221F8080319692FC0
:100F20002100B61FA12F3508C1003408C0003608C3
:100F3000C2002000F620F808031DA02F2100932FE7
:100F40002100AA010130AB00D0302A07AC000130EB
:100F5000AD000318AD0A2030B1005E30B0002D089E
:100F6000C3002C08C2003108C5003008C4002000AE
:100F70005C22F808031DBE2F2100AB2F2100AE1FFD
:100F8000D02FAE132D08C1002C08C0002E08C200BF
:100F90002000F620F808031DCF2F2100C22F2100CA
:100FA000AE172B081F39F700E0302E057704AE008E
:100FB0002D08C1002C08C0002E08C2002000F62019
:100FC000F808031DE52F2100D82F21002508C800AF
:0C0FD0000130C90020006F218831A02CE6
:10100000210026102508003C03185428A503AB0135
:101010002508AA002B08C9002A08C800CB010C30FB
:10102000CA00803120004522883178085C3E2100CA
:10103000A7000030793DA8002808C3002708C20097
:101040002030C5005930C400803120005C22883136
:10105000780B55282100A91B5428AB012508AA00AC
:101060002B08C9002A08C800CB010C30CA00803107
:101070002000452288317808603E2100A70000301A
:10108000793DA8002808C3002708C2002030C50009
:101090005930C400803120005C228831780B5528FB
:1010A00021002610291826142000003021002618BF
:1010B0000130F80088312000A62C21000D122200FA
:1010C0000D1221003A080F393038C200D8008031A3
:1010D0002000E920883121003908C200D800803181
:1010E0002000E920883121003C08BF003B08BE00F9
:1010F000C0013D0840020318B7283E0884003F089D
:1011000085000031D80180312000E920883177083E
:10111000800021003E0884003F0885000131D8018D
:1011200080312000E92088317708800021003E08C6
:1011300084003F0885000231D80180312000E92079
:1011400088317708800021003E0884003F08850030
:101150000331D80180312000E920883177088000F0
:1011600004302100BE070318BF0AC00A79280D12F7
:1011700022000D160130F80020000800210043086D
:10118000083C031CC6284308C400EB28093043026E
:10119000F93E0318EB28073E2000F0280C30210010
:1011A000C400EB2810302100C400EB2814302100CB
:1011B000C400EB2818302100C400EB2820302100A7
:1011C000C400EB2830302100C400EB28403021005F
:1011D000C400EB2821004408F80088312000882A48
:1011E0000A108A100A118207CE28D228D628DA28B7
:1011F000DE28E228E62821002908003C03180B2CF1
:101200000130A902B8012908B7003808C900290827
:10121000C800CB010C30CA00803120004522883143
:1012200078085C3E2100AA000030793DAB002B0815
:10123000C3002A08C2002030C5005C30C4008031E1
:1012400020005C228831F808031D29290B30F800A2
:101250000E2C2100AC1F31290230F80020000E2C8A
:101260002100B8012908B7003808C9002908C800BA
:10127000CB010C30CA00803120004522883178082B
:10128000603E2100AA000030793DAB002B08C3006E
:101290002A08C2002030C5005D30C4008031200023
:1012A0005C228831F808031D58290B30F8000E2CF9
:1012B00021002D1860290130F80020000E2C21009B
:1012C000B8012908B7003808C9002908C800CB01AF
:1012D0000C30CA0080312000452288317808643EF5
:1012E0002100AA000030793DAB002030B8005A3010
:1012F000B7002B08D1002A08D0003808D3003708DF
:10130000D2000230D4008031200015218831F80845
:10131000031D8D290B30F8000E2C04302100AB0783
:101320002030B8005E30B7002B08BA002A08B90098
:101330003808BC003708BB000230BD0020005D202B
:10134000F808031DA6290B30F8000E2C21002608F2
:10135000B8002508B7002030BA005E30B900370861
:10136000840038088500003180010131800101319D
:1013700080010131800104303907F80000303A3D26
:10138000FA00780884007A0885000030001A0130DD
:10139000013C031D3A2A3708F800390884003A084E
:1013A000850000310008C20001310008C30001318E
:1013B0000008C40001310008C5003D314308C200E7
:1013C0004408C3004508C400C501C50CC40CC30CC7
:1013D000C20CC50CC40CC30CC20CC50CC40CC30C91
:1013E000C20C1F30C5050330C405C501390884008F
:1013F0003A08850000310008C70001310008C80024
:101400003F314708F70048080739FA007A08C80052
:10141000C901CA01F701F801470DF900480DFA00AA
:10142000F90DFA0DFC30F90577084204F700780849
:101430004304F80079084404F9007A084504FA00E6
:10144000C5007908C4007808C3007708C2003808CE
:10145000850037088400420880004308813F440823
:10146000823F4508833F37088400380885000A31E9
:101470008014732A390884003A0885000031000876
:10148000C20001310008C3003F314208F7004308A1
:101490000739FA007A08C300380885003708840045
:1014A0004208800001314308800001318001013190
:1014B0008001390884003A08850000310008C00026
:1014C00001310008C1003F31C31E6D2A3708840076
:1014D000380885000131801501313708840038084B
:1014E00085000A31801004303707F8000030383D9D
:1014F000FA007808C0007A08C100390884003A0868
:101500008500043100080F39C200C3002000BE2846
:1015100021004108850040088400780880000530DB
:101520003707F8000030383DFA007808C0007A0824
:10153000C100390884003A08850005310008F70029
:10154000F736F7367736C200410885004008840038
:10155000420880000A303707F8000030383DFA00B2
:101560007808C0007A08C10004303907F80000305C
:101570003A3DFA00780884007A0885000030801A25
:101580000130F8007818CA2A410885004008840014
:101590000011CF2A410885004008840000150A3058
:1015A0003707F8000030383DFA007808C0007A08A4
:1015B000C10004303907F80000303A3DFA007808DD
:1015C00084007A0885000030801B0130F80078180C
:1015D000EF2A41088500400884008011F42A410860
:1015E00085004008840080150830AA070030AB3D14
:1015F000AC1E6F2B25088400260885000A310016D2
:1016000006302507F8000030263DFA007808B700BC
:101610007A08B8002B08BA002A08B9003808BC00BC
:101620003708BB000D1222000D1221003A080F39B5
:101630003038BE00D80080312000E92088312100F8
:101640003908BE00D80080312000E920883121000F
:101650003B0884003C0885000031D801803120001F
:10166000E92088317708800021003B0884003C088D
:1016700085000131D80180312000E92088317708C8
:10168000800021003B0884003C0885000231D8011D
:1016900080312000E92088317708800021003B0854
:1016A00084003C0885000331D80180312000E92006
:1016B00088317708800021000D1222000D160130BC
:1016C000F800F808031D692B0B30F80020000E2CE1
:1016D000220004302100AA070030AB3D752B2508FD
:1016E0008400260885000A31001225088400260897
:1016F0008500043FB600B60803199B2B3608033952
:101700000319842BB60A7E2BB60CB60C3F30B605F7
:101710002B08BA002A08B9002808BC002708BB001B
:101720003608BD0020005D20F808031D9A2B0B3001
:10173000F8000E2C21000A302507F8000030263D65
:10174000FA007808B7007A08B8002D1AAD2B3808CF
:101750008500370884000010B22B38088500370850
:10176000840000142D1EDB2B2D12B8012908B700B0
:101770003808C9002908C800CB010C30CA008031E4
:101780002000452288317808603E2100AA00003000
:10179000793DAB002B08C1002A08C0002D08C2000B
:1017A00080312000F6208831F808031DDA2B0B3039
:1017B000F8000E2C2100B8012908B7003808C9002C
:1017C0002908C800CB010C30CA0080312000452216
:1017D000883178085C3E2100B7000030793DB800C0
:1017E00001303707AA000030383DAB002B08C1009C
:1017F0002A08C0000130C20080312000F620883164
:10180000F808031D062C0B30F8000E2C0030F800F1
:101810000E2C0E2C21000230F80020008831B62C4E
:101820002100A8012808073C031C5C2C2608F700AF
:101830002808F80003191F2CF736F80B1C2C771C0E
:101840005A2C2708F7002808F80003192A2CF73625
:10185000F80B272C771C432C06302507F800203086
:10186000FA000318FA0A780884007A088500013023
:10187000F7002808F8000319402CF735F80B3D2C29
:10188000770880045A2C06302507F8002030FA002B
:101890000318FA0A780884007A0885000130F700F6
:1018A0002808F8000319572CF735F80B542C770843
:1018B000FF3A8005A80A122C88312000CE2C553022
:1018C0003C008F00AA308F000F101030A0001230A3
:1018D000A10018303D00A0001930A10055303C0097
:1018E0008F00AA308F000F1432009E019B019D01D2
:1018F00006309F009901240095124030940020305A
:10190000950021008E100E150E1004302000A4004A
:10191000A50123008C018D018E012200920191010D
:10192000940193012000A601A701A8010230A9009B
:101930008031CF2888312100A50180312000822A02
:10194000883101302100A50020000028F808031983
:10195000CE2C20302100A6000A30A5002030A8009F
:101960001530A7000130A9002000FB28F808031D4E
:10197000CE2C2E08033C031DCE2C3508023C031C44
:10198000CE2C35082100A500200036082100A60035
:10199000200037082100A7002000102CA12C630094
:020000040001F9
:08000E008C3FF13FFF1FFF3F93
:00000001FF
;PIC16F18346
;CRC=0F6F  CREATED="31-Mar-20 12:39"
